:100000000C9462000C948A000C948A000C948A0070
:100010000C948A000C948A000C948A000C948A0038
:100020000C948A000C948A000C948A000C947E0331
:100030000C948A000C948A000C948A000C948A0018
:100040000C94DC020C948A000C944C030C94260350
:100050000C948A000C948A000C948A000C948A00F8
:100060000C948A000C948A000000000023002600F3
:10007000290000000000240027002A0000000000E2
:10008000250028002B0004040404040404040202D4
:100090000202020203030303030301020408102007
:1000A0004080010204081020010204081020000012
:1000B0000008000201000003040700000000000027
:1000C00000007F0411241FBECFEFD8E0DEBFCDBFFC
:1000D00011E0A0E0B1E0E4EBF2E102C005900D9286
:1000E000A232B107D9F721E0A2E2B1E001C01D922E
:1000F000AA3FB207E1F710E0C2E6D0E004C02197C2
:10010000FE010E945209C136D107C9F70E94DC04E2
:100110000C9458090C94000090E0FC01E255FF4F4C
:100120002491FC01E656FF4F3491FC01EA57FF4F42
:10013000E491EE23C9F0222339F0233001F1A8F431
:10014000213019F1223029F1F0E0EE0FFF1FE458C1
:10015000FF4FA591B4918FB7F894EC91611126C02F
:1001600030953E233C938FBF08952730A9F0283067
:10017000C9F0243049F7809180008F7D03C08091C1
:1001800080008F7780938000DFCF84B58F7784BD28
:10019000DBCF84B58F7DFBCF8091B0008F778093CC
:1001A000B000D2CF8091B0008F7DF9CF3E2BDACF57
:1001B000CF93DF9390E0FC01E656FF4F24918A57DE
:1001C0009F4FFC0184918823D1F090E0880F991F04
:1001D000FC01EE58FF4FA591B491FC01E458FF4F8C
:1001E000C591D49161110EC09FB7F8948C91E22F04
:1001F000E0958E238C932881E223E8839FBFDF91D3
:10020000CF9108958FB7F894EC91E22BEC938FBFC8
:10021000F6CF3FB7F8948091310190913201A091CF
:100220003301B091340126B5A89B05C02F3F19F0CA
:100230000196A11DB11D3FBFBA2FA92F982F882766
:10024000BC01CD01620F711D811D911D42E0660F41
:10025000771F881F991F4A95D1F70895AF92BF92D3
:10026000CF92DF92EF92FF920F931F93CF93DF9382
:100270006C017B018B01040F151FEB015E01AE18B1
:10028000BF08C017D10759F06991D601ED91FC91D3
:100290000190F081E02DC6010995892B79F7C50100
:1002A000DF91CF911F910F91FF90EF90DF90CF9052
:1002B000BF90AF900895FC01538D448D252F30E001
:1002C000842F90E0821B930B541710F0CF96089563
:1002D00001970895FC01918D828D981761F0A28D90
:1002E000AE0FBF2FB11D5D968C91928D9F5F9F7356
:1002F000928F90E008958FEF9FEF0895FC01918D0C
:10030000828D981731F0828DE80FF11D858D90E078
:1003100008958FEF9FEF0895FC01918D228D892F15
:1003200090E0805C9F4F821B91098F7399270895FD
:1003300085E391E00E948C0121E0892B09F420E003
:10034000822F089580E090E0892B29F00E94980187
:1003500081110C9400000895FC01A48DA80FB92F01
:10036000B11DA35ABF4F2C91848D90E001968F73DD
:100370009927848FA689B7892C93A089B1898C91FC
:10038000837080648C93938D848D981306C002884B
:10039000F389E02D80818F7D80830895EF92FF9215
:1003A0000F931F93CF93DF93EC0181E0888F9B8D98
:1003B0008C8D98131AC0E889F989808185FF15C052
:1003C0009FB7F894EE89FF896083E889F989808175
:1003D0008370806480839FBF81E090E0DF91CF9144
:1003E0001F910F91FF90EF900895F62E0B8D10E066
:1003F0000F5F1F4F0F731127E02E8C8D8E110CC0D5
:100400000FB607FCFACFE889F989808185FFF5CF1F
:10041000CE010E94AC01F1CFEB8DEC0FFD2FF11D51
:10042000E35AFF4FF0829FB7F8940B8FEA89FB895C
:1004300080818062CFCFCF93DF93EC01888D8823BA
:10044000B9F0AA89BB89E889F9898C9185FD03C037
:10045000808186FD0DC00FB607FCF7CF8C9185FF1C
:10046000F2CF808185FFEDCFCE010E94AC01E9CFB4
:10047000DF91CF910895FC0101900020E9F73197B9
:10048000AF01481B590BBC0185E391E00C942E0190
:100490008F929F92AF92BF920F931F93CF93DF9350
:1004A000CDB7DEB7A1970FB6F894DEBF0FBECDBFB4
:1004B00019A2423008F44AE08E010F5D1F4F842ECE
:1004C000912CB12CA12CA50194010E94BB07E62F11
:1004D000B901CA01EA30F4F4E05DD801EE938D0170
:1004E000232B242B252B79F790E080E0109719F02F
:1004F000CD010E943B02A1960FB6F894DEBF0FBE5D
:10050000CDBFDF91CF911F910F91BF90AF909F9082
:100510008F900895E95CE1CF0F931F9360E08CE02A
:100520000E948C0083E090E00197F1F761E08CE09D
:100530000E948C0083E290E00197F1F760E08CE08C
:100540000E948C00E5EAF0E06491E1E9F0E0E491DA
:10055000F0E0EE0FFF1FE859FF4F8591949100E402
:1005600012E42FE030E0462F0E943A046115710535
:100570008105910529F06F5F7F4F8F4F9F4F9F70CF
:100580000E94270828E23EE74CE05DE30E94B108A4
:1005900020E030E040E05FE30E94B1086093280172
:1005A0007093290180932A0190932B010E94F107F7
:1005B000CB011F910F9108951F920F920FB60F92CA
:1005C00011242F933F938F939F93AF93BF93809169
:1005D0002D0190912E01A0912F01B0913001309109
:1005E0002C0123E0230F2D3758F50196A11DB11DD5
:1005F00020932C0180932D0190932E01A0932F0125
:10060000B09330018091310190913201A09133017A
:10061000B09134010196A11DB11D809331019093D9
:100620003201A0933301B0933401BF91AF919F91F8
:100630008F913F912F910F900FBE0F901F901895A3
:1006400026E8230F0296A11DB11DD2CF1F920F9253
:100650000FB60F9211242F933F934F935F936F9395
:100660007F938F939F93AF93BF93EF93FF9385E314
:1006700091E00E94AC01FF91EF91BF91AF919F91EA
:100680008F917F916F915F914F913F912F910F903B
:100690000FBE0F901F9018951F920F920FB60F92DA
:1006A00011242F938F939F93EF93FF93E091450134
:1006B000F09146018081E0914B01F0914C0182FD67
:1006C0001BC0908180914E018F5F8F7320914F01ED
:1006D000821741F0E0914E01F0E0EB5CFE4F958F08
:1006E00080934E01FF91EF919F918F912F910F90E9
:1006F0000FBE0F901F9018958081F4CF1F920F921C
:100700000FB60F9211242F933F934F935F936F93E4
:100710007F938F939F93AF93BF93CF93DF93EF9389
:10072000FF9380912201C091F601D0E087FF24C0A1
:100730001092850010928400809122018F5F809337
:10074000220180912201082E000C990B8C179D0725
:1007500024F4809122018C30C4F180918400909126
:100760008500049680349C4908F47AC08091840006
:1007700090918500049676C080912201082E000C8D
:10078000990B8C179D07C4F6E09122018E2FEE0F76
:10079000990BFC01EE0FFF1FE80FF91FEE52FE4F01
:1007A000808186FFC9CFE09122018E2FEE0F990B39
:1007B000FC01EE0FFF1FE80FF91FEE52FE4F808184
:1007C00060E08F730E948C00B7CF2091840030913D
:1007D0008500E09122018E2FEE0F990BFC01EE0FA8
:1007E000FF1FE80FF91FEE52FE4F81819281820FA9
:1007F000931F9093890080938800E09122018E2FAF
:10080000EE0F990BFC01EE0FFF1FE80FF91FEE52E0
:10081000FE4F808186FF11C0E09122018E2FEE0FE6
:10082000990BFC01EE0FFF1FE80FF91FEE52FE4F70
:10083000808161E08F730E948C00FF91EF91DF91C6
:10084000CF91BF91AF919F918F917F916F915F9168
:100850004F913F912F910F900FBE0F901F901895C1
:1008600080E49CE990938900809388008FEF8093C7
:100870002201E3CFCF92DF92EF92FF920F931F936B
:10088000E82FF92F05C0015011092109310961F143
:10089000908196239417B9F305C0015011092109DD
:1008A000310911F1908196239413F7CFC12CD12CEB
:1008B000E12CF12C0AC08FEFC81AD80AE80AF80A0E
:1008C0000C151D052E053F0579F0808186238417C0
:1008D00091F36C2D7D2D8E2D9F2D1F910F91FF90EB
:1008E000EF90DF90CF90089560E070E080E090E0BE
:1008F0001F910F91FF90EF90DF90CF90089510928D
:1009000038011092370188EE93E0A0E0B0E08093C8
:10091000390190933A01A0933B01B0933C0188E0E8
:1009200091E0909336018093350185EC90E09093AF
:1009300042018093410184EC90E0909344018093C4
:10094000430180EC90E0909346018093450181EC57
:1009500090E0909348018093470182EC90E090935F
:100960004A018093490186EC90E090934C0180937A
:100970004B0110924E0110924F01109250011092B3
:1009800051018091F6018C3098F491E0980F90938A
:10099000F6018093F70190E0FC01EE0FFF1FE80FD6
:1009A000F91FEE52FE4F88EB9BE0928381830895FE
:1009B0008FEF8093F7010895789484B5826084BDA9
:1009C00084B5816084BD85B5826085BD85B5816053
:1009D00085BD80916E00816080936E0010928100D1
:1009E000809181008260809381008091810081608C
:1009F000809381008091800081608093800080914D
:100A0000B10084608093B1008091B00081608093D8
:100A1000B00080917A00846080937A0080917A009F
:100A2000826080937A0080917A00816080937A005E
:100A300080917A00806880937A001092C100809142
:100A4000F7018C3008F051C061E08AE00E94D800C4
:100A50008091F701282F30E0F901EE0FFF1FE20F20
:100A6000F31FEE52FE4F9081907C9A60908310921B
:100A7000F8011092F9012CE0622F0E944609829F32
:100A8000B001112430E020E0AB01420F531FFA0106
:100A9000EE0FFF1FE40FF51FEE52FE4F908196FD03
:100AA00016C02F5F3F4F2C30310571F781110FC0F9
:100AB0001092800082E08093810010928500109255
:100AC0008400B19A80916F00826080936F00E09102
:100AD000F7018E2F90E0FC01EE0FFF1FE80FF91FCA
:100AE000EE52FE4F80818064808380E480937C009E
:100AF00080917A00806480937A0080917A0086FDEC
:100B0000FCCF8091780060917900762F682F072EB6
:100B1000000C880B990B611571058105910511F089
:100B20000E948007E0914501F091460182E08083B8
:100B3000E0914101F09142011082E0914301F09176
:100B400044018FEC808310924D01E0914901F091B6
:100B50004A0186E08083E0914701F091480180815D
:100B600080618083E0914701F09148018081886035
:100B70008083E0914701F091480180818068808303
:100B8000E0914701F091480180818F7D808360E092
:100B90008BE00E94D80061E08CE00E94D80038E829
:100BA000232E312C08E512E04DEE442E55245A94A4
:100BB000652C752CC0E0D0E086E191E00E943B02FC
:100BC0000E948C026C01990FEE08FF084AE0C701F1
:100BD000B601F7FE0DC06DE285E391E00E94CE0103
:100BE00066277727CB016C197D098E099F094AE09A
:100BF0000E9448028FE191E00E943B020E948C0219
:100C00000E9409014B015C0124E6C22ED12CE12C8B
:100C1000F12C0E940901681979098A099B09683E2B
:100C2000734081059105A8F321E0C21AD108E108BB
:100C3000F10838EE830E33E0931EA11CB11CC114E1
:100C4000D104E104F10429F720E030E040E251E46E
:100C5000609128017091290180912A0190912B01C6
:100C60000E94EC0718161CF031E0309327018091A8
:100C70002701882309F49EC00E94310726E430E052
:100C800040E050E00E9489076B017C016D5E7F4F60
:100C90008F4F9F4F60932301709324018093250110
:100CA0009093260197FF0BC06DE285E391E00E94CF
:100CB000CE01C301B2016C197D098E099F094AE07A
:100CC0000E9448028FE191E00E943B02A091230123
:100CD000B0912401A03282E0B807C4F58091F801F8
:100CE0006101C81AD10887FDD394CC0CDD1CCC0C53
:100CF000DD1C0D2C000CEE08FF088091F901980115
:100D0000281B310987FD3395220F331F220F331F14
:100D1000032E000C440B550B2C193D094E095F099D
:100D2000A53BB10514F0A4EBB0E0B7FF02C0B0E002
:100D3000A0E00E94B30724EB30E040E050E00E94C6
:100D40008907C20ED31EE41EF51ED6014091F7019D
:100D50004C3080F58091F8019101281B310987FD05
:100D60003395C901880F991F880F991FA817B907D4
:100D700084F08091F9019801281B310987FD339592
:100D8000C901880F991F880F991FA817B9070CF47C
:100D9000CD010297880F991F6FB7F89450E09A0120
:100DA000220F331F240F351FF901EE52FE4F92839D
:100DB00081836FBF209709F4FFCE0E94980188239A
:100DC00009F4FACE0E940000F5CE8F929F92AF9266
:100DD000BF92CF92DF92EF92FF92CF93DF93EC011D
:100DE000688179818A819B816115710581059105F1
:100DF00021F464E279ED8BE597E02DE133EF41E0FA
:100E000050E00E94890749015A019B01AC01A7EA01
:100E1000B1E40E94A8076B017C01ACEEB4EFA50120
:100E200094010E94B607C60ED71EE81EF91EF7FEF3
:100E300006C081E0C81AD108E10880E8F80AC88233
:100E4000D982EA82FB82C701B6019F77DF91CF91F9
:100E5000FF90EF90DF90CF90BF90AF909F908F90DA
:100E600008958F929F92AF92BF92CF92DF92EF92AE
:100E7000FF926091000170910101809102019091B7
:100E80000301611571058105910521F464E279ED95
:100E90008BE597E02DE133EF41E050E00E948907B8
:100EA00049015A019B01AC01A7EAB1E40E94A807DD
:100EB0006B017C01ACEEB4EFA50194010E94B60772
:100EC000C60ED71EE81EF91EF7FE06C081E0C81A3E
:100ED000D108E10880E8F80AC0920001D09201012F
:100EE000E0920201F0920301C701B6019F77FF90E3
:100EF000EF90DF90CF90BF90AF909F908F9008952C
:100F000060930001709301018093020190930301AB
:100F10000895052E97FB1EF400940E94A00757FD2C
:100F200007D00E94BB0707FC03D04EF40C94A00727
:100F300050954095309521953F4F4F4F5F4F089505
:100F400090958095709561957F4F8F4F9F4F089535
:100F50000E94DD07A59F900DB49F900DA49F800D6A
:100F6000911D11240895B7FF0C94A8070E94A807AB
:100F7000821B930B0895A1E21A2EAA1BBB1BFD0135
:100F80000DC0AA1FBB1FEE1FFF1FA217B307E40768
:100F9000F50720F0A21BB30BE40BF50B661F771FC0
:100FA000881F991F1A9469F76095709580959095A0
:100FB0009B01AC01BD01CF010895A29FB001B39F79
:100FC000C001A39F700D811D1124911DB29F700D52
:100FD000811D1124911D08950E94640808F481E088
:100FE00008950E94F8076894B1110C94AB08089515
:100FF0000E94900888F09F5798F0B92F9927B75111
:10100000B0F0E1F0660F771F881F991F1AF0BA95AC
:10101000C9F714C0B13091F00E94AA08B1E0089558
:101020000C94AA08672F782F8827B85F39F0B93F4A
:10103000CCF3869577956795B395D9F73EF490955F
:101040008095709561957F4F8F4F9F4F0895E894DD
:1010500009C097FB3EF490958095709561957F4F00
:101060008F4F9F4F9923A9F0F92F96E9BB279395AE
:10107000F695879577956795B795F111F8CFFAF4BE
:10108000BB0F11F460FF1BC06F5F7F4F8F4F9F4FEF
:1010900016C0882311F096E911C0772321F09EE84D
:1010A000872F762F05C0662371F096E8862F70E0B3
:1010B00060E02AF09A95660F771F881FDAF7880F8D
:1010C0009695879597F90895990F0008550FAA0BE3
:1010D000E0E8FEEF16161706E807F907C0F012164B
:1010E0001306E407F50798F0621B730B840B950B4E
:1010F00039F40A2661F0232B242B252B21F40895A3
:101100000A2609F4A140A6958FEF811D811D08953F
:1011100057FD9058440F551F59F05F3F71F04795A8
:10112000880F97FB991F61F09F3F79F0879508958D
:10113000121613061406551FF2CF4695F1DF08C0AC
:10114000161617061806991FF1CF869571056105C9
:1011500008940895E894BB2766277727CB0197F971
:1011600008950E94C4080C9435090E94270938F09C
:101170000E942E0920F0952311F00C941E090C9466
:10118000240911240C94AB080E94880870F3959FE1
:10119000C1F3950F50E0551F629FF001729FBB276E
:1011A000F00DB11D639FAA27F00DB11DAA1F649F0A
:1011B0006627B00DA11D661F829F2227B00DA11DBD
:1011C000621F739FB00DA11D621F839FA00D611D43
:1011D000221F749F3327A00D611D231F849F600D64
:1011E000211D822F762F6A2F11249F5750409AF08D
:1011F000F1F088234AF0EE0FFF1FBB1F661F771F19
:10120000881F91505040A9F79E3F510580F00C94E3
:101210001E090C94AB085F3FE4F3983ED4F3869527
:1012200077956795B795F795E7959F5FC1F7FE2B83
:10123000880F911D9695879597F9089597F99F675F
:1012400080E870E060E008959FEF80EC089500244E
:101250000A941616170618060906089500240A941B
:1012600012161306140605060895092E0394000CA1
:1012700011F4882352F0BB0F40F4BF2B11F460FF30
:1012800004C06F5F7F4F8F4F9F4F0895991B79E088
:1012900004C0991F961708F0961B881F7A95C9F706
:1012A00080950895EE0FFF1F0590F491E02D0994AD
:0412B000F894FFCFE0
:1012B4000100000000000000CE012E015B011B02B2
:1012C4008C016A017E0144697374616E6365000D6B
:0212D4000A000E
:00000001FF
