:100000000C9462000C948A000C948A000C948A0070
:100010000C948A000C948A000C948A000C948A0038
:100020000C948A000C948A000C948A000C94E503CA
:100030000C948A000C948A000C948A000C948A0018
:100040000C9443030C948A000C94B3030C948D031A
:100050000C948A000C948A000C948A000C948A00F8
:100060000C948A000C948A000000000023002600F3
:10007000290000000000240027002A0000000000E2
:10008000250028002B0004040404040404040202D4
:100090000202020203030303030301020408102007
:1000A0004080010204081020010204081020000012
:1000B0000008000201000003040700000000000027
:1000C0000000E60411241FBECFEFD8E0DEBFCDBF95
:1000D00011E0A0E0B1E0EEEAF2E102C005900D927D
:1000E000AE32B107D9F722E0AEE2B1E001C01D9215
:1000F000A630B207E1F710E0C2E6D0E004C02197D5
:10010000FE010E944F09C136D107C9F70E9443057D
:100110000C9455090C94000090E0FC01E255FF4F4F
:100120002491FC01E656FF4F3491FC01EA57FF4F42
:10013000E491EE23C9F0222339F0233001F1A8F431
:10014000213019F1223029F1F0E0EE0FFF1FE458C1
:10015000FF4FA591B4918FB7F894EC91611126C02F
:1001600030953E233C938FBF08952730A9F0283067
:10017000C9F0243049F7809180008F7D03C08091C1
:1001800080008F7780938000DFCF84B58F7784BD28
:10019000DBCF84B58F7DFBCF8091B0008F778093CC
:1001A000B000D2CF8091B0008F7DF9CF3E2BDACF57
:1001B000CF93DF9390E0FC01E656FF4F24918A57DE
:1001C0009F4FFC0184918823D1F090E0880F991F04
:1001D000FC01EE58FF4FA591B491FC01E458FF4F8C
:1001E000C591D49161110EC09FB7F8948C91E22F04
:1001F000E0958E238C932881E223E8839FBFDF91D3
:10020000CF9108958FB7F894EC91E22BEC938FBFC8
:10021000F6CF3FB7F89480913D0190913E01A091B7
:100220003F01B091400126B5A89B05C02F3F19F0B2
:100230000196A11DB11D3FBFBA2FA92F982F882766
:10024000BC01CD01620F711D811D911D42E0660F41
:10025000771F881F991F4A95D1F708958F929F9213
:10026000AF92BF92CF92DF92EF92FF924B015C016F
:100270000E9409016B017C010E9409016C197D0932
:100280008E099F09683E734081059105A8F321E01E
:10029000821A9108A108B10888EEC80E83E0D81E22
:1002A000E11CF11C81149104A104B10429F7FF9011
:1002B000EF90DF90CF90BF90AF909F908F90089578
:1002C000AF92BF92CF92DF92EF92FF920F931F9364
:1002D000CF93DF936C017B018B01040F151FEB01A2
:1002E0005E01AE18BF08C017D10759F06991D60159
:1002F000ED91FC910190F081E02DC6010995892BCB
:1003000079F7C501DF91CF911F910F91FF90EF9089
:10031000DF90CF90BF90AF900895FC01538D448D36
:10032000252F30E0842F90E0821B930B541710F0A0
:10033000CF96089501970895FC01918D828D9817AD
:1003400061F0A28DAE0FBF2FB11D5D968C91928D85
:100350009F5F9F73928F90E008958FEF9FEF0895B6
:10036000FC01918D828D981731F0828DE80FF11D7F
:10037000858D90E008958FEF9FEF0895FC01918D9A
:10038000228D892F90E0805C9F4F821B91098F7393
:100390009927089581E491E00E94BE0121E0892B14
:1003A00009F420E0822F089580E090E0892B29F065
:1003B0000E94CA0181110C9400000895FC01A48DD3
:1003C000A80FB92FB11DA35ABF4F2C91848D90E077
:1003D00001968F739927848FA689B7892C93A0895A
:1003E000B1898C91837080648C93938D848D9813E4
:1003F00006C00288F389E02D80818F7D8083089577
:10040000EF92FF920F931F93CF93DF93EC0181E064
:10041000888F9B8D8C8D98131AC0E889F98980810B
:1004200085FF15C09FB7F894EE89FF896083E8893E
:10043000F98980818370806480839FBF81E090E030
:10044000DF91CF911F910F91FF90EF900895F62EBD
:100450000B8D10E00F5F1F4F0F731127E02E8C8D57
:100460008E110CC00FB607FCFACFE889F98980819C
:1004700085FFF5CFCE010E94DE01F1CFEB8DEC0FB1
:10048000FD2FF11DE35AFF4FF0829FB7F8940B8FB9
:10049000EA89FB8980818062CFCFCF93DF93EC0123
:1004A000888D8823B9F0AA89BB89E889F9898C915C
:1004B00085FD03C0808186FD0DC00FB607FCF7CF18
:1004C0008C9185FFF2CF808185FFEDCFCE010E9418
:1004D000DE01E9CFDF91CF910895FC01019000206A
:1004E000E9F73197AF01481B590BBC0181E491E05A
:1004F0000C9460018F929F92AF92BF920F931F93C3
:10050000CF93DF93CDB7DEB7A1970FB6F894DEBFD8
:100510000FBECDBF19A2423008F44AE08E010F5D34
:100520001F4F842E912CB12CA12CA50194010E9467
:10053000B807E62FB901CA01EA30F4F4E05DD8014A
:10054000EE938D01232B242B252B79F790E080E06F
:10055000109719F0CD010E946D02A1960FB6F89484
:10056000DEBF0FBECDBFDF91CF911F910F91BF9026
:10057000AF909F908F900895E95CE1CFCF92DF928A
:10058000EF92FF92CF93DF936B017C016DE281E4E8
:1005900091E00E940002EC0166277727CB016C19DD
:1005A0007D098E099F094AE00E947A028C0F9D1FE7
:1005B000DF91CF91FF90EF90DF90CF900895CF9390
:1005C000DF9397FF0CC00E94BE02EC0186E191E030
:1005D0000E946D028C0F9D1FDF91CF9108954AE01C
:1005E0000E947A02F2CF0F931F9360E08CE00E948A
:1005F0008C0083E090E00197F1F761E08CE00E94CD
:100600008C0083E290E00197F1F760E08CE00E94BB
:100610008C00E5EAF0E06491E1E9F0E0E491F0E0DB
:10062000EE0FFF1FE859FF4F8591949100E412E40B
:100630002FE030E0462F0E94A1046115710581056D
:10064000910529F06F5F7F4F8F4F9F4F9F700E94E2
:10065000240828E23EE74CE05DE30E94AE0820E07B
:1006600030E040E05FE30E94AE0860933401709395
:10067000350180933601909337010E94EE07CB013C
:100680001F910F9108951F920F920FB60F92112490
:100690002F933F938F939F93AF93BF938091390193
:1006A00090913A01A0913B01B0913C013091380109
:1006B00023E0230F2D3758F50196A11DB11D20937E
:1006C00038018093390190933A01A0933B01B09394
:1006D0003C0180913D0190913E01A0913F01B0917C
:1006E00040010196A11DB11D80933D0190933E01F3
:1006F000A0933F01B0934001BF91AF919F918F9123
:100700003F912F910F900FBE0F901F90189526E8E4
:10071000230F0296A11DB11DD2CF1F920F920FB6CB
:100720000F9211242F933F934F935F936F937F9377
:100730008F939F93AF93BF93EF93FF9381E491E0E7
:100740000E94DE01FF91EF91BF91AF919F918F9138
:100750007F916F915F914F913F912F910F900FBEBD
:100760000F901F9018951F920F920FB60F921124A1
:100770002F938F939F93EF93FF93E0915101F0910B
:1007800052018081E0915701F091580182FD1BC018
:10079000908180915A018F5F8F7320915B01821746
:1007A00041F0E0915A01F0E0EF5BFE4F958F8093AE
:1007B0005A01FF91EF919F918F912F910F900FBE52
:1007C0000F901F9018958081F4CF1F920F920FB653
:1007D0000F9211242F933F934F935F936F937F93C7
:1007E0008F939F93AF93BF93CF93DF93EF93FF9339
:1007F00080912E01C0910202D0E087FF24C01092A8
:1008000085001092840080912E018F5F80932E01CD
:1008100080912E01082E000C990B8C179D0724F453
:1008200080912E018C30C4F18091840090918500DC
:10083000049680349C4908F47AC080918400909199
:100840008500049676C080912E01082E000C990B2D
:100850008C179D07C4F6E0912E018E2FEE0F990B99
:10086000FC01EE0FFF1FE80FF91FE252FE4F8081DF
:1008700086FFC9CFE0912E018E2FEE0F990BFC0160
:10088000EE0FFF1FE80FF91FE252FE4F808160E07C
:100890008F730E948C00B7CF209184003091850027
:1008A000E0912E018E2FEE0F990BFC01EE0FFF1F32
:1008B000E80FF91FE252FE4F81819281820F931F50
:1008C0009093890080938800E0912E018E2FEE0F87
:1008D000990BFC01EE0FFF1FE80FF91FE252FE4FCC
:1008E000808186FF11C0E0912E018E2FEE0F990BB3
:1008F000FC01EE0FFF1FE80FF91FE252FE4F80814F
:1009000061E08F730E948C00FF91EF91DF91CF9196
:10091000BF91AF919F918F917F916F915F914F9117
:100920003F912F910F900FBE0F901F90189580E46C
:100930009CE990938900809388008FEF80932E012B
:10094000E3CFCF92DF92EF92FF920F931F93E82FA6
:10095000F92F05C0015011092109310961F1908178
:1009600096239417B9F305C00150110921093109E3
:1009700011F1908196239413F7CFC12CD12CE12C47
:10098000F12C0AC08FEFC81AD80AE80AF80A0C1529
:100990001D052E053F0579F080818623841791F38C
:1009A0006C2D7D2D8E2D9F2D1F910F91FF90EF901F
:1009B000DF90CF90089560E070E080E090E01F91BC
:1009C0000F91FF90EF90DF90CF9008951092440127
:1009D0001092430188EE93E0A0E0B0E080934501DF
:1009E00090934601A0934701B093480188E091E0BD
:1009F000909342018093410185EC90E090934E01E9
:100A000080934D0184EC90E09093500180934F01CE
:100A100080EC90E0909352018093510181EC90E042
:100A2000909354018093530182EC90E0909356018F
:100A30008093550186EC90E0909358018093570184
:100A400010925A0110925B0110925C0110925D01AC
:100A5000809102028C3098F491E0980F90930202FA
:100A60008093030290E0FC01EE0FFF1FE80FF91FD7
:100A7000E252FE4F88EB9BE09283818308958FEFD3
:100A8000809303020895789484B5826084BD84B510
:100A9000816084BD85B5826085BD85B5816085BD79
:100AA00080916E00816080936E0010928100809131
:100AB00081008260809381008091810081608093B9
:100AC0008100809180008160809380008091B100DE
:100AD00084608093B1008091B00081608093B00009
:100AE00080917A00846080937A0080917A0082609D
:100AF00080937A0080917A00816080937A0080915F
:100B00007A00806880937A001092C100809103027D
:100B10008C3008F051C061E08AE00E94D8008091DA
:100B20000302282F30E0F901EE0FFF1FE20FF31F41
:100B3000E252FE4F9081907C9A6090831092040262
:100B4000109205022CE0622F0E944309829FB0019F
:100B5000112430E020E0AB01420F531FFA01EE0FE9
:100B6000FF1FE40FF51FE252FE4F908196FD16C065
:100B70002F5F3F4F2C30310571F781110FC010925C
:100B8000800082E0809381001092850010928400A2
:100B9000B19A80916F00826080936F00E0910302B0
:100BA0008E2F90E0FC01EE0FFF1FE80FF91FE252BD
:100BB000FE4F80818064808380E480937C008091FC
:100BC0007A00806480937A0080917A0086FDFCCF61
:100BD0008091780060917900762F682F072E000CA5
:100BE000880B990B611571058105910511F00E9423
:100BF0007D07E0915101F091520182E08083E09104
:100C00004D01F0914E011082E0914F01F0915001A1
:100C10008FEC808310925901E0915501F0915601BB
:100C200086E08083E0915301F091540180818061DE
:100C30008083E0915301F09154018081886080832A
:100C4000E0915301F0915401808180688083E091AC
:100C50005301F091540180818F7D808360E08BE0AF
:100C60000E94D80061E08CE00E94D80086E4C82E83
:100C7000D12CE12CF12C95E4892E912CA12CB12CB6
:100C8000C0E0D0E011E089E191E00E946D020E9495
:100C9000F302BC01990F880B990B97FF8FC00E943C
:100CA000BE0286E191E00E946D020E94F30264E6BA
:100CB00070E080E090E00E942E0120E030E040E211
:100CC00051E4609134017091350180913601909129
:100CD00037010E94E907181614F010933301809130
:100CE0003301882351F10E942E07A70196010E942B
:100CF00086076D5E7F4F8F4F9F4F60932F017093DC
:100D00003001809331019093320182E291E00E94A0
:100D10006D0286E191E00E946D0260912F01709159
:100D2000300180913101909132010E94DF0264E62E
:100D300070E080E090E00E942E0120E030E040E290
:100D400051E46091340170913501809136019091A8
:100D500037010E94E907181634F180913301882386
:100D600011F10E942E07A50194010E948607625985
:100D70007F4F8F4F9F4F60932F017093300180936F
:100D80003101909332010E94DF0289E291E00E94DA
:100D90006D0286E191E00E946D0262E370E080E006
:100DA00090E00E942E01209709F46DCF0E94CA01A5
:100DB000882309F468CF0E94000065CF4AE00E94B2
:100DC0007A026FCF8F929F92AF92BF92CF92DF92B3
:100DD000EF92FF92CF93DF93EC01688179818A8152
:100DE0009B81611571058105910521F464E279ED1E
:100DF0008BE597E02DE133EF41E050E00E9486075C
:100E000049015A019B01AC01A7EAB1E40E94A50780
:100E10006B017C01ACEEB4EFA50194010E94B30715
:100E2000C60ED71EE81EF91EF7FE06C081E0C81ADE
:100E3000D108E10880E8F80AC882D982EA82FB82F8
:100E4000C701B6019F77DF91CF91FF90EF90DF90C0
:100E5000CF90BF90AF909F908F9008958F929F9268
:100E6000AF92BF92CF92DF92EF92FF92609100011A
:100E7000709101018091020190910301611571054A
:100E80008105910521F464E279ED8BE597E02DE190
:100E900033EF41E050E00E94860749015A019B016F
:100EA000AC01A7EAB1E40E94A5076B017C01ACEE9E
:100EB000B4EFA50194010E94B307C60ED71EE81E29
:100EC000F91EF7FE06C081E0C81AD108E10880E8E3
:100ED000F80AC0920001D0920101E0920201F09262
:100EE0000301C701B6019F77FF90EF90DF90CF908D
:100EF000BF90AF909F908F90089560930001709382
:100F0000010180930201909303010895052E97FB40
:100F10001EF400940E949D0757FD07D00E94B80759
:100F200007FC03D04EF40C949D07509540953095E6
:100F300021953F4F4F4F5F4F089590958095709545
:100F400061957F4F8F4F9F4F08950E94DA07A59FAD
:100F5000900DB49F900DA49F800D911D11240895B4
:100F6000B7FF0C94A5070E94A507821B930B089559
:100F7000A1E21A2EAA1BBB1BFD010DC0AA1FBB1F9D
:100F8000EE1FFF1FA217B307E407F50720F0A21B0F
:100F9000B30BE40BF50B661F771F881F991F1A947C
:100FA00069F760957095809590959B01AC01BD01A6
:100FB000CF010895A29FB001B39FC001A39F700D00
:100FC000811D1124911DB29F700D811D1124911D51
:100FD00008950E94610808F481E008950E94F507D1
:100FE0006894B1110C94A80808950E948D0888F0A7
:100FF0009F5798F0B92F9927B751B0F0E1F0660FDD
:10100000771F881F991F1AF0BA95C9F714C0B1301D
:1010100091F00E94A708B1E008950C94A708672FEB
:10102000782F8827B85F39F0B93FCCF3869577954C
:101030006795B395D9F73EF4909580957095619535
:101040007F4F8F4F9F4F0895E89409C097FB3EF460
:1010500090958095709561957F4F8F4F9F4F992305
:10106000A9F0F92F96E9BB279395F6958795779583
:101070006795B795F111F8CFFAF4BB0F11F460FF43
:101080001BC06F5F7F4F8F4F9F4F16C0882311F09B
:1010900096E911C0772321F09EE8872F762F05C0AF
:1010A000662371F096E8862F70E060E02AF09A954A
:1010B000660F771F881FDAF7880F9695879597F93F
:1010C0000895990F0008550FAA0BE0E8FEEF1616D9
:1010D0001706E807F907C0F012161306E407F5072C
:1010E00098F0621B730B840B950B39F40A2661F0A0
:1010F000232B242B252B21F408950A2609F4A14043
:10110000A6958FEF811D811D089557FD9058440FBE
:10111000551F59F05F3F71F04795880F97FB991F56
:1011200061F09F3F79F08795089512161306140613
:10113000551FF2CF4695F1DF08C0161617061806A0
:10114000991FF1CF86957105610508940895E8947B
:10115000BB2766277727CB0197F908950E94C1081E
:101160000C9432090E94240938F00E942B0920F0C7
:10117000952311F00C941B090C94210911240C9453
:10118000A8080E94850870F3959FC1F3950F50E061
:10119000551F629FF001729FBB27F00DB11D639F29
:1011A000AA27F00DB11DAA1F649F6627B00DA11DCF
:1011B000661F829F2227B00DA11D621F739FB00D75
:1011C000A11D621F839FA00D611D221F749F3327E5
:1011D000A00D611D231F849F600D211D822F762F7E
:1011E0006A2F11249F5750409AF0F1F088234AF05B
:1011F000EE0FFF1FBB1F661F771F881F91505040C7
:10120000A9F79E3F510580F00C941B090C94A80887
:101210005F3FE4F3983ED4F3869577956795B7954D
:10122000F795E7959F5FC1F7FE2B880F911D969567
:10123000879597F9089597F99F6780E870E060E0D7
:1012400008959FEF80EC089500240A94161617065F
:1012500018060906089500240A94121613061406A7
:1012600005060895092E0394000C11F4882352F00A
:10127000BB0F40F4BF2B11F460FF04C06F5F7F4FC2
:101280008F4F9F4F0895991B79E004C0991F9617BF
:1012900008F0961B881F7A95C9F780950895EE0F80
:0E12A000FF1F0590F491E02D0994F894FFCF04
:1012AE000100000000000000000260018D014D02EF
:1012BE00BE019C01B0010D0A0044697374616E6336
:0E12CE0065006E756D6265720079656574006D
:00000001FF
